:020000040800F2
:10000000680600208901000891010008930100089A
:100010009501000897010008990100080000000000
:100020000000000000000000000000009B0100082C
:100030009D010008000000009F010008A1010008C8
:10004000A3010008A3010008A3010008A301000800
:10005000A3010008A3010008A3010008A3010008F0
:10006000A3010008A3010008A3010008A3010008E0
:10007000A3010008A3010008A3010008A3010008D0
:10008000A3010008A3010008A3010008A3010008C0
:10009000A3010008A3010008A3010008A3010008B0
:1000A000A3010008A3010008A3010008A3010008A0
:1000B000A3010008A3010008A3010008A301000890
:1000C000A3010008A3010008A3010008A301000880
:1000D000A3010008A3010008A3010008A301000870
:1000E000A3010008A3010008A301000800F002F822
:1000F00000F03AF80AA090E8000C82448344AAF188
:100100000107DA4501D100F02FF8AFF2090EBAE885
:100110000F0013F0010F18BFFB1A43F0010318473B
:100120003C0500005C050000103A24BF78C878C187
:10013000FAD8520724BF30C830C144BF04680C60ED
:10014000704700000023002400250026103A28BF35
:1001500078C1FBD8520728BF30C148BF0B60704739
:100160001FB51FBD10B510BD00F031F81146FFF7E7
:10017000F7FF00F04DFA00F04FF803B4FFF7F2FF7D
:1001800003BC00F057F800000948804709480047C1
:10019000FEE7FEE7FEE7FEE7FEE7FEE7FEE7FEE737
:1001A000FEE7FEE704480549054A064B7047000094
:1001B000B1050008ED000008680000206806002076
:1001C000680200206802002070477047704775463B
:1001D00000F02CF8AE4605006946534620F00700B3
:1001E000854618B020B5FFF7DDFFBDE820404FF091
:1001F00000064FF000074FF000084FF0000B21F011
:100200000701AC46ACE8C009ACE8C009ACE8C009DD
:10021000ACE8C0098D46704710B50446AFF30080C6
:100220002046BDE81040FFF7A8BF00000048704717
:100230000800002001491820ABBEFEE7260002009E
:100240007047000008B5F020ADF8000003208DF8DD
:10025000020018208DF803006946024800F004F8F7
:1002600008BD0000000801402DE9F04102460025CC
:100270000026002000230024002791F803C00CF082
:100280000F0591F803C00CF0100CBCF1000F03D067
:1002900091F802C04CEA050591F800C0BCF1000FCE
:1002A00031D0146800202BE04FF0010C0CFA00F361
:1002B000B1F800C00CEA03069E4220D183004FF043
:1002C0000F0C0CFA03F7BC4305FA03FC4CEA0404D8
:1002D00091F803C0BCF1280F06D14FF0010C0CFAC5
:1002E00000FCC2F814C00AE091F803C0BCF1480F4A
:1002F00005D14FF0010C0CFA00FCC2F810C0401CF4
:100300000828D1D31460B1F800C0BCF1FF0F34DD70
:10031000546800202EE000F1080C4FF0010808FAA4
:100320000CF3B1F800C00CEA03069E4221D1830011
:100330004FF00F0C0CFA03F7BC4305FA03FC4CEA30
:10034000040491F803C0BCF1280F05D100F1080C9A
:1003500008FA0CF8C2F8148091F803C0BCF1480FF9
:1003600007D100F1080C4FF0010808FA0CF8C2F8A8
:100370001080401C0828CED35460BDE8F0810246AE
:10038000002093680B400BB1012000E00020704773
:1003900029B1064A92690243044B9A6104E0034A78
:1003A00092698243014B9A6170470000001002403D
:1003B00010B5012141F20400FFF7EAFF10BD21B1A1
:1003C000028842F04002028004E002884FF6BF73C8
:1003D0001A40028070470246002013890B400BB17F
:1003E000012000E000207047014688897047818124
:1003F000704710B50022028802F441520B884C88E5
:1004000023438C882343CC8823430C8923434C8982
:1004100023438C892343CC8923431A430280838B53
:100420004FF2FF74234083830B8A038210BD0000C8
:1004300070B5044600BF80210E48FFF7CCFF0128AD
:10044000F9D00C48FFF7D0FFC5B200BF0121094821
:10045000FFF7C1FF0028F9D021460648FFF7C7FF84
:1004600000BF02210348FFF7B6FF0028F9D0284655
:1004700070BD00000030014000B585B00020ADF82F
:100480000200ADF800002020ADF80C000020ADF80F
:100490000600ADF80800ADF804008020ADF80E00AD
:1004A0000720ADF810004FF40070ADF80A0069465F
:1004B0000448FFF79EFF01210248FFF780FF05B0C7
:1004C00000BD00000030014010B500F001F810BD83
:1004D0000CB50020019000903348006840F4803053
:1004E0003149086000BF3048006800F400300090D7
:1004F0000198401C0190009818B90198B0F5A06FC0
:10050000F1D12948006800F4003010B101200090BA
:1005100001E0002000900098012843D123480068A2
:1005200040F01000214908600846006820F00700EC
:1005300008600846006840F0020008601A484068F9
:10054000194948600846406848600846406840F4D9
:10055000806048600846406820F47C104860084687
:10056000406840F4E81048600846006840F0807039
:10057000086000BF0C48006800F000700028F9D047
:100580000948406820F00300074948600846406871
:1005900040F00200486000BF0348406800F00C00D3
:1005A0000828F9D10CBD00000010024000200240D4
:1005B00010B51348006840F0010011490860084672
:1005C0004068104908400E494860084600680E49D6
:1005D00008400B4908600846006820F48020086045
:1005E0000846406820F4FE0048604FF41F00886011
:1005F000FFF76AFF4FF000600449086010BD00007B
:10060000001002400000FFF8FFFFF6FE08ED00E0DA
:10061000FFF7CEFEFFF716FEFFF72EFF16E000BF36
:1006200010210B48FFF7ABFE0028F9D11021084834
:10063000FFF7A5FE50B9002406E00649085DFFF764
:10064000F7FE05490870641C052CF6DBE7E700009F
:100650000008014001000020000000207C06000886
:10066000000000200800000028010008840600089F
:10067000080000206006000044010008000C0D0E78
:040680000F10000057
:04000005080000ED02
:00000001FF
