:020000040800F2
:100000007006002089010008910100089301000892
:100010009501000897010008990100080000000000
:100020000000000000000000000000009B0100082C
:100030009D010008000000009F010008A1010008C8
:10004000A3010008A3010008A3010008A301000800
:10005000A3010008A3010008A3010008A3010008F0
:10006000A3010008A3010008A3010008A3010008E0
:10007000A3010008A3010008A3010008A3010008D0
:10008000A3010008A3010008A3010008A3010008C0
:10009000A3010008A3010008A3010008A3010008B0
:1000A000A3010008A3010008A3010008A3010008A0
:1000B000A3010008A3010008A3010008A301000890
:1000C000A3010008A3010008A3010008A301000880
:1000D000A3010008A3010008A3010008A301000870
:1000E000A3010008A3010008A301000800F002F822
:1000F00000F03AF80AA090E8000C82448344AAF188
:100100000107DA4501D100F02FF8AFF2090EBAE885
:100110000F0013F0010F18BFFB1A43F0010318473B
:100120005008000070080000103A24BF78C878C159
:10013000FAD8520724BF30C830C144BF04680C60ED
:10014000704700000023002400250026103A28BF35
:1001500078C1FBD8520728BF30C148BF0B60704739
:100160001FB51FBD10B510BD00F031F81146FFF7E7
:10017000F7FF00F0DBFB00F04FF803B4FFF7F2FFEE
:1001800003BC00F057F800000948804709480047C1
:10019000FEE7FEE7FEE7FEE7FEE7FEE7FEE7FEE737
:1001A000FEE7FEE704480549054A064B7047000094
:1001B0008D070008ED000008700000207006002088
:1001C000700200207002002070477047704775462B
:1001D00000F02CF8AE4605006946534620F00700B3
:1001E000854618B020B5FFF7DDFFBDE820404FF091
:1001F00000064FF000074FF000084FF0000B21F011
:100200000701AC46ACE8C009ACE8C009ACE8C009DD
:10021000ACE8C0098D46704710B50446AFF30080C6
:100220002046BDE81040FFF7A8BF00000048704717
:100230001000002001491820ABBEFEE72600020096
:1002400070472DE9F04105460E4690461F4600F0E6
:100250007BF97106080E00F0B1F920B900F094F9AD
:100260000020BDE8F081281200F0A8F918B900F0CC
:100270008BF90020F5E7E8B200F0A0F918B900F01A
:1002800083F90020EDE700F05FF9012101EB460161
:10029000C8B200F093F918B900F076F90020E0E751
:1002A000002405E0012000F005F93855601CC4B2B7
:1002B0004445F7DB002000F0FDF8385500F064F904
:1002C0000120CEE72DE9F04105460E461746984637
:1002D00000242EE000F038F97106080E00F06EF9E7
:1002E00020B900F051F90020BDE8F0812919C1F3CF
:1002F000072000F063F918B900F046F90020F3E791
:100300002919C8B200F05AF918B900F03DF90020D7
:10031000EAE718F8040000F051F918B900F034F9D0
:100320000020E1E700F030F90A2000F0DBFA601C61
:10033000C4B2BC42CEDB0120D6E7000008B51420D1
:100340008DF80300C020ADF8000003208DF80200F6
:100350006946024800F004F808BD0000000C0140A6
:100360002DE9F0410246002500260020002300244C
:10037000002791F803C00CF00F0591F803C00CF0B2
:10038000100CBCF1000F03D091F802C04CEA050537
:1003900091F800C0BCF1000F31D0146800202BE0B0
:1003A0004FF0010C0CFA00F3B1F800C00CEA0306A0
:1003B0009E4220D183004FF00F0C0CFA03F7BC4390
:1003C00005FA03FC4CEA040491F803C0BCF1280FC1
:1003D00006D14FF0010C0CFA00FCC2F814C00AE080
:1003E00091F803C0BCF1480F05D14FF0010C0CFA95
:1003F00000FCC2F810C0401C0828D1D31460B1F82A
:1004000000C0BCF1FF0F34DD546800202EE000F185
:10041000080C4FF0010808FA0CF3B1F800C00CEA20
:1004200003069E4221D183004FF00F0C0CFA03F714
:10043000BC4305FA03FC4CEA040491F803C0BCF188
:10044000280F05D100F1080C08FA0CF8C2F8148046
:1004500091F803C0BCF1480F07D100F1080C4FF030
:10046000010808FA0CF8C2F81080401C0828CED306
:100470005460BDE8F0810246002093680B400BB148
:10048000012000E000207047416170470161704722
:1004900010B580210648FFF7F9FF012000F037FA78
:1004A00040210348FFF7F2FF012000F030FA10BDB1
:1004B000000C014070B50546002480212148FFF75B
:1004C000E5FF032000F023FA00261BE06006040E7F
:1004D00040211C48FFF7DAFF032000F018FA8021C2
:1004E0001848FFF7C8FF08B144F00104022000F0EB
:1004F0000EFA40211348FFF7C7FF052000F007FA66
:10050000701CC6B2082EE1DB25B180210D48FFF733
:10051000BBFF03E080210B48FFF7B8FF032000F08A
:10052000F6F940210748FFF7B1FF052000F0EFF989
:1005300040210448FFF7A8FF052000F0E8F9204615
:1005400070BD0000000C014010B580210D48FFF780
:100550009DFF012000F0DBF940210A48FFF796FFDC
:10056000032000F0D4F980210648FFF78DFF032017
:1005700000F0CDF940210348FFF786FF032000F08B
:10058000C6F910BD000C014010B580210A48FFF7E4
:100590007BFF032000F0BBF940210748FFF776FFFF
:1005A000032000F0B4F980210348FFF76FFF032018
:1005B00000F0ADF910BD0000000C014070B504461C
:1005C00000261FE004F0800020B180211F48FFF7C3
:1005D0005DFF03E080211D48FFF756FF032000F078
:1005E00096F940211948FFF751FF052000F08FF9D7
:1005F00040211648FFF748FF022000F088F9600606
:10060000040E761C082EDDDB80211048FFF73EFF2C
:10061000032000F07CF940210C48FFF737FF03204E
:1006200000F075F980210948FFF725FF08B1002582
:1006300000E00125022000F06AF940210348FFF79D
:1006400023FF052000F063F9284670BD000C01402F
:1006500029B1064AD2690243044BDA6104E0034A35
:10066000D2698243014BDA617047000000100240FA
:1006700029B1064A92690243044B9A6104E0034A95
:1006800092698243014B9A6170470000001002405A
:1006900010B501210820FFF7EBFF01210846FFF705
:1006A000D7FF10BD10B500F001F810BD0CB500204B
:1006B000019000903348006840F480303149086070
:1006C00000BF3048006800F4003000900198401CE2
:1006D0000190009818B90198B0F5A06FF1D12948A0
:1006E000006800F4003010B10120009001E000200B
:1006F00000900098012843D12348006840F0100082
:10070000214908600846006820F007000860084694
:10071000006840F0020008601A48406819494860C3
:100720000846406848600846406840F48060486079
:100730000846406820F47C1048600846406840F451
:10074000E81048600846006840F08070086000BF0C
:100750000C48006800F000700028F9D00948406893
:1007600020F00300074948600846406840F0020056
:10077000486000BF0348406800F00C000828F9D129
:100780000CBD0000001002400020024010B51348CC
:10079000006840F0010011490860084640681049AF
:1007A00008400E494860084600680E4908400B4959
:1007B00008600846006820F4802008600846406809
:1007C00020F4FE0048604FF41F008860FFF76AFFC6
:1007D0004FF000600449086010BD000000100240A6
:1007E0000000FFF8FFFFF6FE08ED00E00EB54FF445
:1007F0008070ADF806002420ADF800004FF6FF70C1
:10080000ADF804000020ADF8020069464FF08040CA
:1008100000F016F80121880700F001F80EBD21B1A3
:10082000028842F00102028004E002884FF6FE7363
:100830001A40028070470146888C70478184704757
:10084000002202881D4B98420ED01D4B98420BD0BF
:10085000B0F1804F08D01B4B984205D01A4B9842FC
:1008600002D01A4B984204D14FF68F731A404B882E
:100870001A43174B984207D0164B984204D04FF6B4
:10088000FF431A40CB881A4302808B8883850B88EC
:1008900003850A4B98420BD0094B984208D00E4B67
:1008A000984205D00D4B984202D00D4B984201D191
:1008B0000B7A03860123838270470000002C0140DD
:1008C000003401400004004000080040000C0040DB
:1008D000001000400014004000400140004401406E
:1008E0000048014070B5044600214FF08040FFF7FA
:1008F000A5FF002507E000BF4FF08040FFF79BFFFA
:10090000A042F9DB6D1CB5F57A7FF4DB70BD10B544
:10091000044600214FF08040FFF790FF00BF4FF0EA
:100920008040FFF788FFA042F9DB10BDFFF7B0FE63
:10093000FFF704FDFFF75AFFFFF7AAFD00214FF074
:100940008040FFF77BFF084B082250212420FFF74F
:10095000B9FC08E000BF054B082250212420FFF716
:1009600070FC0028F7D0F5E7000000200800002008
:100970009009000800000020100000002801000875
:10098000A0090008100000206006000044010008D3
:10099000173072088220384200000000000000007A
:04000005080000ED02
:00000001FF
